:020000040800F2
:100000000000032065080008ED070008F30700085A
:10001000F9070008FF0700080508000800000000B5
:100020000000000000000000000000000B080008B5
:10003000190800080000000027080008350800081B
:10004000B5080008B5080008B5080008B50800089C
:10005000B5080008B5080008B5080008B50800088C
:10006000B5080008B5080008B5080008B50800087C
:10007000B5080008B5080008B5080008B50800086C
:10008000B5080008B5080008B5080008B50800085C
:10009000B5080008B5080008B5080008B50800084C
:1000A000B5080008B5080008B5080008B50800083C
:1000B000B5080008B5080008B5080008B50800082C
:1000C000B5080008B5080008B5080008B50800081C
:1000D000B5080008B5080008B5080008B50800080C
:1000E000B5080008B5080008B5080008B5080008FC
:1000F000B5080008B5080008B5080008B5080008EC
:10010000B5080008B5080008B5080008B5080008DB
:10011000B5080008B5080008B5080008B5080008CB
:10012000B5080008B5080008B5080008B5080008BB
:10013000B5080008B5080008B5080008B5080008AB
:10014000B5080008B5080008B5080008B50800089B
:10015000B5080008B5080008B5080008B50800088B
:10016000B5080008B5080008B5080008B50800087B
:10017000B5080008B5080008B50800080000000030
:10018000B5080008B5080008B5080008B50800085B
:10019000B5080008B5080008B5080008B50800084B
:0C01A000B5080008B5080008B508000804
:1001AC0010B5054C237833B9044B13B10448AFF3A5
:1001BC0000800123237010BD0C0000200000000003
:1001CC00FC1A000808B5034B1BB103490348AFF3F5
:1001DC00008008BD0000000010000020FC1A000880
:1001EC0053B94AB9002908BF00281CBF4FF0FF3192
:1001FC004FF0FF3000F074B9ADF1080C6DE904CE8E
:10020C0000F006F8DDF804E0DDE9022304B07047E5
:10021C002DE9F047089D04468E46002B4DD18A42AD
:10022C00944669D9B2FA82F252B101FA02F3C2F1E0
:10023C00200120FA01F10CFA02FC41EA030E944071
:10024C004FEA1C48210CBEFBF8F61FFA8CF708FB92
:10025C0016E341EA034306FB07F199420AD91CEB6A
:10026C00030306F1FF3080F01F81994240F21C819C
:10027C00023E63445B1AA4B2B3FBF8F008FB1033E4
:10028C0044EA034400FB07F7A7420AD91CEB040419
:10029C0000F1FF3380F00A81A74240F207816444E9
:1002AC00023840EA0640E41B00261DB1D44000236E
:1002BC00C5E900433146BDE8F0878B4209D9002DD2
:1002CC0000F0EF800026C5E9000130463146BDE85C
:1002DC00F087B3FA83F6002E4AD18B4202D38242C6
:1002EC0000F2F980841A61EB030301209E46002D75
:1002FC00E0D0C5E9004EDDE702B9FFDEB2FA82F2CA
:10030C00002A40F09280A1EB0C014FEA1C471FFA27
:10031C008CFE0126200CB1FBF7F307FB131140EA0E
:10032C0001410EFB03F0884208D91CEB010103F1DB
:10033C00FF3802D2884200F2CB804346091AA4B29D
:10034C00B1FBF7F007FB101144EA01440EFB00FE71
:10035C00A64508D91CEB040400F1FF3102D2A645D6
:10036C0000F2BB800846A4EB0E0440EA03409CE775
:10037C00C6F12007B34022FA07FC4CEA030C20FA22
:10038C0007F401FA06F31C43F9404FEA1C4900FA42
:10039C0006F3B1FBF9F8200C1FFA8CFE09FB1811BF
:1003AC0040EA014108FB0EF0884202FA06F20BD932
:1003BC001CEB010108F1FF3A80F08880884240F282
:1003CC008580A8F102086144091AA4B2B1FBF9F0C6
:1003DC0009FB101144EA014100FB0EFE8E4508D9C1
:1003EC001CEB010100F1FF346CD28E456AD9023846
:1003FC00614440EA0840A0FB0294A1EB0E01A1422B
:10040C00C846A64656D353D05DB1B3EB080261EB98
:10041C000E0101FA07F722FA06F3F1401F43C5E972
:10042C00007100263146BDE8F087C2F12003D840A8
:10043C000CFA02FC21FA03F3914001434FEA1C47EA
:10044C001FFA8CFEB3FBF7F007FB10360B0C43EADC
:10045C00064300FB0EF69E4204FA02F408D91CEB8C
:10046C00030300F1FF382FD29E422DD9023863448A
:10047C009B1B89B2B3FBF7F607FB163341EA03412A
:10048C0006FB0EF38B4208D91CEB010106F1FF3879
:10049C0016D28B4214D9023E6144C91A46EA004670
:1004AC0038E72E46284605E70646E3E61846F8E602
:1004BC004B45A9D2B9EB020864EB0C0E0138A3E74B
:1004CC004646EAE7204694E74046D1E7D0467BE72C
:1004DC00023B614432E7304609E76444023842E7A4
:1004EC00704700BF80B483B000AF00237B60104B1B
:1004FC001B6B0F4A43F0800313630D4B1B6B03F014
:10050C0080037B607B6800233B60094B1B6B084AB4
:10051C0043F001031363064B1B6B03F001033B60B9
:10052C003B6800BF0C37BD465DF8047B704700BFCD
:10053C000038024080B584B000AF094B1B68FB60EB
:10054C00FB68BB60074B1B687B607B6883F3088888
:10055C0000BFBB68984700BF1037BD4680BD00BFC9
:10056C00044000080040000880B588B000AF0023AC
:10057C00FB6001237B610123BB610223FB613A1DFC
:10058C0007F10C031146184600F022FD0346002B20
:10059C0004D000F0D1FB0346DBB2FB7200BF203766
:1005AC00BD4680BDB0B586B000AF00F093FB0346EE
:1005BC00FB7200237B60274B7B61274B274ADA6059
:1005CC00FFF7D2FF264B3B613AE03B6903331B78C4
:1005DC001B067B603B6902331B781B041A467B6845
:1005EC0013437B603B6901331B781B021A467B6803
:1005FC0013437B603B691B781A467B6813437B6013
:10060C007B6800221C46154622462B46796902203F
:10061C0000F00CFB0023FB6002E0FB680133FB6085
:10062C00FB68C72BF9DD00BF0B4BDB6803F4803391
:10063C00002BF9D17B6904337B613B6904333B614B
:10064C003B69084A9342C0D300F066FB00BF1837E1
:10065C00BD46B0BD00400008003C02401100010046
:10066C000080000800C0000880B500AF00F01EF943
:10067C0000F028F8FFF736FF0E4B1B78002B02D149
:10068C00FFF790FFF8E70C4B1A680C4B13400C4A21
:10069C0093420CD14FF47A7000F0AEF900F0D0F91F
:1006AC0000F026F962B600BFFFF744FFE4E7FFF75E
:1006BC0079FFE1E700300008004000080000FF2F40
:1006CC000000032080B594B000AF07F12003302266
:1006DC000021184601F004FA07F10C0300221A60FD
:1006EC005A609A60DA601A610023BB60234B1B6C62
:1006FC00224A43F080531364204B1B6C03F080534D
:10070C00BB60BB6800237B601D4B1B6823F440431C
:10071C001B4A43F480431360194B1B6803F440439A
:10072C007B607B6802233B620123FB6210233B63EB
:10073C000023BB6307F12003184600F089FD034634
:10074C00002B01D000F01EF80F23FB6000233B614F
:10075C0000237B610023BB610023FB6107F10C03C9
:10076C000021184600F0ECFF0346002B01D000F0EE
:10077C0009F800BF5037BD4680BD00BF00380240AD
:10078C000070004080B400AF72B600BFFEE70000FE
:10079C0080B483B000AF00237B60104B5B6C0F4ABE
:1007AC0043F4804353640D4B5B6C03F480437B60D8
:1007BC007B6800233B60094B1B6C084A43F0805359
:1007CC001364064B1B6C03F080533B603B6800BF0B
:1007DC000C37BD465DF8047B704700BF0038024003
:1007EC0080B400AFFEE780B400AFFEE780B400AF8A
:1007FC00FEE780B400AFFEE780B400AFFEE780B444
:10080C0000AF00BFBD465DF8047B704780B400AFFD
:10081C0000BFBD465DF8047B704780B400AF00BFDD
:10082C00BD465DF8047B704780B500AF00F0C4F89E
:10083C0000BF80BD80B400AF064BD3F88830054AAA
:10084C0043F47003C2F8883000BFBD465DF8047BEA
:10085C00704700BF00ED00E0DFF834D00D480E49C2
:10086C000E4A002302E0D458C4500433C4188C42FE
:10087C00F9D30B4A0B4C002301E013600432A24263
:10088C00FBD3FFF7D7FF01F007F9FFF7EDFE704739
:10089C0000000320000000200C000020341B000886
:1008AC000C0000204C000020FEE7000080B500AFDB
:1008BC000E4B1B680D4A43F4007313600B4B1B6803
:1008CC000A4A43F480631360084B1B68074A43F4DD
:1008DC0080731360032000F075F90F2000F03CF8D2
:1008EC00FFF756FF0023184680BD00BF003C0240B6
:1008FC0080B500AF134B4FF0FF321A62114B002240
:10090C001A62104B4FF0FF325A620E4B00225A62A1
:10091C000C4B4FF0FF321A610A4B00221A61094B43
:10092C004FF0FF325A61074B00225A61054B4FF0D2
:10093C00FF329A61034B00229A6100F005F8002304
:10094C00184680BD0038024080B400AF00BFBD46E1
:10095C005DF8047B7047000080B582B000AF786012
:10096C00124B1A68124B1B7819464FF47A73B3FB6F
:10097C00F1F3B2FBF3F3184600F04BF90346002BEE
:10098C0001D001230EE07B680F2B0AD80022796876
:10099C004FF0FF3000F021F9064A7B68136000230A
:1009AC0000E0012318460837BD4680BD000000203A
:1009BC00080000200400002080B400AF064B1B7818
:1009CC001A46064B1B681344044A136000BFBD460D
:1009DC005DF8047B704700BF080000202800002051
:1009EC0080B400AF034B1B681846BD465DF8047B12
:1009FC00704700BF2800002080B584B000AF78603D
:100A0C00FFF7EEFFB8607B68FB60FB68B3F1FF3F5C
:100A1C0005D00A4B1B781A46FB681344FB6000BFD9
:100A2C00FFF7DEFF0246BB68D31AFA689A42F7D882
:100A3C0000BF00BF1037BD4680BD00BF08000020BE
:100A4C0080B400AF054B1B68044A23F0020313600B
:100A5C0000BFBD465DF8047B704700BF10E000E0AE
:100A6C0080B485B000AF78607B6803F00703FB604F
:100A7C000C4BDB68BB60BA684FF6FF031340BB60DE
:100A8C00FB681A02BB68134343F0BF6343F40033A3
:100A9C00BB60044ABB68D36000BF1437BD465DF829
:100AAC00047B704700ED00E080B400AF044BDB68C2
:100ABC001B0A03F007031846BD465DF8047B70471C
:100ACC0000ED00E080B483B000AF03463960FB71E9
:100ADC0097F90730002B0ADB3B68DAB20C4997F91F
:100AEC0007301201D2B20B4483F800230AE03B68B2
:100AFC00DAB20849FB7903F00F03043B1201D2B2BE
:100B0C000B441A7600BF0C37BD465DF8047B70476A
:100B1C0000E100E000ED00E080B489B000AFF860C7
:100B2C00B9607A60FB6803F00703FB61FB69C3F1F2
:100B3C000703042B28BF0423BB61FB690433062B7A
:100B4C0002D9FB69033B00E000237B614FF0FF32CD
:100B5C00BB6902FA03F3DA43BB681A407B699A401B
:100B6C004FF0FF317B6901FA03F3D9437B680B40EB
:100B7C00134318462437BD465DF8047B70470000CC
:100B8C0080B582B000AF78607B68013BB3F1807FA9
:100B9C0001D301230FE00A4A7B68013B53600F210C
:100BAC004FF0FF30FFF78EFF054B00229A60044B8D
:100BBC0007221A60002318460837BD4680BD00BFC7
:100BCC0010E000E080B582B000AF78607868FFF785
:100BDC0047FF00BF0837BD4680BD80B586B000AF6B
:100BEC000346B9607A60FB7300237B61FFF75CFFFF
:100BFC0078617A68B9687869FFF78EFF024697F9D1
:100C0C000F3011461846FFF75DFF00BF1837BD4681
:100C1C0080BD80B582B000AF78607868FFF7B0FF18
:100C2C00034618460837BD4680BD000080B586B027
:100C3C0000AFF860B960C7E900230123FB75234BB3
:100C4C001B7E012B01D102233BE0204B01221A76A3
:100C5C004CF2503000F07CF80346FB75FB7D002B0A
:100C6C002BD1FB68002B05D13B781946B86800F0F6
:100C7C0027F916E0FB68012B05D13B881946B868AB
:100C8C0000F0FAF80DE0FB68022B05D13B68194621
:100C9C00B86800F0CFF804E0D7E90023B86800F09A
:100CAC0097F84CF2503000F053F80346FB75084BA4
:100CBC001B69074A23F001031361044B00221A76C7
:100CCC00FB7D18461837BD4680BD00BF2C000020A8
:100CDC00003C024080B483B000AF0023FB710B4B8F
:100CEC001B69002B0BDA094B094A5A60074B094A5E
:100CFC005A60064B1B69002B01DA0123FB71FB794F
:100D0C0018460C37BD465DF8047B7047003C02402A
:100D1C0023016745AB89EFCD80B400AF054B1B6950
:100D2C00044A43F00043136100231846BD465DF8A6
:100D3C00047B7047003C024080B400AF034BDB697E
:100D4C001846BD465DF8047B704700BF2C000020A0
:100D5C0080B584B000AF78600023FB601A4B002292
:100D6C00DA61FFF73DFEF86010E07B68B3F1FF3FFE
:100D7C000CD07B68002B07D0FFF732FE0246FB68D5
:100D8C00D31A7A689A4201D2032319E00F4BDB681D
:100D9C0003F48033002BE8D10C4BDB6803F0010328
:100DAC00002B02D0094B0122DA60084BDB6803F4FC
:100DBC00F973002B03D000F0A5F8012300E0002309
:100DCC0018461037BD4680BD2C000020003C024068
:100DDC0080B485B000AFF860C7E90023144B1B69E1
:100DEC00134A23F440731361114B1B69104A43F4EB
:100DFC00407313610E4B1B690D4A43F001031361E1
:100E0C00FB683A681A60BFF36F8F00BFD7E9000127
:100E1C004FF000024FF000030A000023F968043180
:100E2C0013460B6000BF1437BD465DF8047B70475A
:100E3C00003C024080B483B000AF786039600D4B49
:100E4C001B690C4A23F4407313610A4B1B69094A52
:100E5C0043F400731361074B1B69064A43F001030B
:100E6C0013617B683A681A6000BF0C37BD465DF8A9
:100E7C00047B7047003C024080B483B000AF7860C4
:100E8C000B467B800D4B1B690C4A23F4407313619A
:100E9C000A4B1B69094A43F480731361074B1B69A6
:100EAC00064A43F0010313617B687A881A8000BFFD
:100EBC000C37BD465DF8047B704700BF003C024018
:100ECC0080B483B000AF78600B46FB700C4B1B6991
:100EDC000B4A23F440731361094B094A1B691361D4
:100EEC00074B1B69064A43F0010313617B68FA78D0
:100EFC001A7000BF0C37BD465DF8047B704700BF0D
:100F0C00003C024080B400AF2F4BDB6803F01003B1
:100F1C00002B08D02D4BDB6943F010032B4AD36117
:100F2C00294B1022DA60284BDB6803F02003002BDE
:100F3C0008D0264BDB6943F00803244AD361224BCB
:100F4C002022DA60204BDB6803F04003002B08D032
:100F5C001E4BDB6943F004031C4AD3611A4B40223D
:100F6C00DA60194BDB6803F08003002B08D0174BB9
:100F7C00DB6943F00203154AD361134B8022DA601C
:100F8C00114BDB6803F48073002B09D00F4BDB692A
:100F9C0043F001030D4AD3610B4B4FF48072DA60BE
:100FAC00094BDB6803F00203002B08D0074BDB690D
:100FBC0043F02003054AD361034B0222DA6000BFE1
:100FCC00BD465DF8047B7047003C02402C000020BD
:100FDC0080B584B000AF786039600123FB730023C7
:100FEC00BB60324B1B7E012B01D102235AE02F4BED
:100FFC0001221A764CF25030FFF7AAFE0346FB731F
:10100C00FB7B002B4AD13B684FF0FF321A607B68A8
:10101C001B68012B17D17B681B69DAB27B685B6894
:10102C001946104600F046F84CF25030FFF790FE8F
:10103C000346FB731E4B1B691D4A23F4004323F02C
:10104C000403136128E07B689B68BB601CE07B6831
:10105C001B69DBB21946B86800F066F84CF25030E8
:10106C00FFF776FE0346FB73114B1B69104A23F006
:10107C00FA031361FB7B002B03D03B68BA681A6040
:10108C000AE0BB680133BB607B68DA687B689B68ED
:10109C001344BA689A42DAD300F094F8034B002256
:1010AC001A76FB7B18461037BD4680BD2C000020FD
:1010BC00003C024080B483B000AF03463960FB7142
:1010CC00184B1B69174A23F4407313613B68032BBD
:1010DC0008D1144B1B69134A43F4004343F0040337
:1010EC0013610FE03B68012B06D10E4B1B690D4AB7
:1010FC0043F00403136105E00A4B1B69094A43F4EE
:10110C0000431361074B1A69FB791B021343054A11
:10111C0043F48033136100BF0C37BD465DF8047B8C
:10112C00704700BF003C024080B485B000AF7860CF
:10113C000B46FB700023FB60FB78002B02D10023D5
:10114C00FB6010E0FB78012B03D14FF48073FB6044
:10115C0009E0FB78022B03D14FF40073FB6002E033
:10116C004FF44073FB607B680B2B02D97B68043314
:10117C007B60134B1B69124A23F440731361104BB1
:10118C001A690F49FB6813430B610D4B1B690C4A21
:10119C0023F0F80313610A4B1A697B68DB001343D5
:1011AC00074A43F002031361054B1B69044A43F4DD
:1011BC008033136100BF1437BD465DF8047B704764
:1011CC00003C024080B400AF204B1B6803F400735A
:1011DC00002B17D01D4B1B681C4A23F400731360A3
:1011EC001A4B1B68194A43F400631360174B1B68B6
:1011FC00164A23F400631360144B1B68134A43F420
:10120C0000731360114B1B6803F48063002B17D021
:10121C000E4B1B680D4A23F4806313600B4B1B6849
:10122C000A4A43F480531360084B1B68074A23F4A3
:10123C0080531360054B1B68044A43F480631360AE
:10124C0000BFBD465DF8047B704700BF003C024008
:10125C0080B586B000AF78607B68002B01D101238C
:10126C0067E27B681B6803F00103002B75D0884B89
:10127C009B6803F00C03042B0CD0854B9B6803F08C
:10128C000C03082B12D1824B5B6803F48003B3F57B
:10129C00800F0BD17E4B1B6803F40033002B5BD00B
:1012AC007B685B68002B57D1012342E27B685B684B
:1012BC00B3F5803F06D1764B1B68754A43F48033F7
:1012CC0013601DE07B685B68B3F5A02F0CD1704BED
:1012DC001B686F4A43F4802313606D4B1B686C4A88
:1012EC0043F4803313600BE0694B1B68684A23F4AA
:1012FC0080331360664B1B68654A23F480231360AC
:10130C007B685B68002B13D0FFF76AFB386108E041
:10131C00FFF766FB02463B69D31A642B01D9032302
:10132C0007E25B4B1B6803F40033002BF0D014E096
:10133C00FFF756FB386108E0FFF752FB02463B69AA
:10134C00D31A642B01D90323F3E1514B1B6803F42B
:10135C000033002BF0D100E000BF7B681B6803F06A
:10136C000203002B63D04A4B9B6803F00C03002B49
:10137C000BD0474B9B6803F00C03082B1CD1444B40
:10138C005B6803F48003002B16D1414B1B6803F000
:10139C000203002B05D07B68DB68012B01D00123F5
:1013AC00C7E13B4B1B6823F0F8027B681B69DB0031
:1013BC00374913430B603AE07B68DB68002B20D085
:1013CC00344B01221A60FFF70BFB386108E0FFF782
:1013DC0007FB02463B69D31A022B01D90323A8E170
:1013EC002B4B1B6803F00203002BF0D0284B1B681F
:1013FC0023F0F8027B681B69DB00254913430B6063
:10140C0015E0244B00221A60FFF7EAFA386108E075
:10141C00FFF7E6FA02463B69D31A022B01D90323E4
:10142C0087E11B4B1B6803F00203002BF0D17B6898
:10143C001B6803F00803002B36D07B685B69002B1C
:10144C0016D0154B01221A60FFF7CAFA386108E072
:10145C00FFF7C6FA02463B69D31A022B01D90323C4
:10146C0067E10B4B5B6F03F00203002BF0D01BE02A
:10147C00094B00221A60FFF7B3FA38610EE0FFF750
:10148C00AFFA02463B69D31A022B07D9032350E16A
:10149C000038024000004742800E4742884B5B6F89
:1014AC0003F00203002BEAD17B681B6803F00403F2
:1014BC00002B00F097800023FB75814B1B6C03F015
:1014CC008053002B0FD10023BB607D4B1B6C7C4ADF
:1014DC0043F0805313647A4B1B6C03F08053BB6056
:1014EC00BB680123FB75774B1B6803F48073002BDF
:1014FC0018D1744B1B68734A43F480731360FFF765
:10150C006FFA386108E0FFF76BFA02463B69D31AB1
:10151C00022B01D903230CE16A4B1B6803F4807383
:10152C00002BF0D07B689B68012B06D1644B1B6FA2
:10153C00634A43F0010313671CE07B689B68052B2F
:10154C000CD15F4B1B6F5E4A43F0040313675C4B7B
:10155C001B6F5B4A43F0010313670BE0584B1B6F87
:10156C00574A23F001031367554B1B6F544A23F062
:10157C00040313677B689B68002B15D0FFF730FAC8
:10158C0038610AE0FFF72CFA02463B69D31A41F2A4
:10159C008832934201D90323CBE0494B1B6F03F0F4
:1015AC000203002BEED014E0FFF71AFA38610AE0C0
:1015BC00FFF716FA02463B69D31A41F2883293427E
:1015CC0001D90323B5E03E4B1B6F03F00203002B44
:1015DC00EED1FB7D012B05D1394B1B6C384A23F026
:1015EC00805313647B689B69002B00F0A180344B03
:1015FC009B6803F00C03082B5CD07B689B69022B67
:10160C0041D1314B00221A60FFF7EAF9386108E04A
:10161C00FFF7E6F902463B69D31A022B01D90323E3
:10162C0087E0274B1B6803F00073002BF0D17B681D
:10163C00DA697B681B6A1A437B685B6A9B011A43F5
:10164C007B689B6A5B08013B1B041A437B68DB6A63
:10165C001B061B4913434B601B4B01221A60FFF7FF
:10166C00BFF9386108E0FFF7BBF902463B69D31AB2
:10167C00022B01D903235CE0114B1B6803F00073B0
:10168C00002BF0D054E0104B00221A60FFF7A8F9A1
:10169C00386108E0FFF7A4F902463B69D31A022B24
:1016AC0001D9032345E0064B1B6803F00073002BA4
:1016BC00F0D13DE07B689B69012B07D1012338E019
:1016CC000038024000700040600047421B4B5B68D2
:1016DC00FB607B689B69012B28D0FB6803F48002BC
:1016EC007B68DB699A4221D1FB6803F03F027B687F
:1016FC001B6A9A421AD1FA6847F6C07313407A688B
:10170C00526A9201934211D1FB6803F440327B6818
:10171C009B6A5B08013B1B049A4207D1FB6803F0F0
:10172C0070627B68DB6A1B069A4201D0012300E0E1
:10173C00002318461837BD4680BD00BF0038024054
:10174C0080B584B000AF786039607B68002B01D124
:10175C000123CCE0684B1B6803F00F033A689A42F4
:10176C000CD9654B3A68D2B21A70634B1B6803F004
:10177C000F033A689A4201D00123B8E07B681B68DA
:10178C0003F00203002B20D07B681B6803F00403DA
:10179C00002B05D0594B9B68584A43F4E053936097
:1017AC007B681B6803F00803002B05D0534B9B6828
:1017BC00524A43F460439360504B9B6823F0F00211
:1017CC007B689B684D4913438B607B681B6803F0F7
:1017DC000103002B44D07B685B68012B07D1474B7E
:1017EC001B6803F40033002B19D101237FE07B68C5
:1017FC005B68022B03D07B685B68032B07D13F4BE4
:10180C001B6803F00073002B09D101236FE03B4BE5
:10181C001B6803F00203002B01D1012367E0374B57
:10182C009B6823F003027B685B68344913438B602D
:10183C00FFF7D6F8F8600AE0FFF7D2F80246FB682B
:10184C00D31A41F28832934201D903234FE02B4B38
:10185C009B6803F00C027B685B689B009A42EBD19F
:10186C00254B1B6803F00F033A689A420CD2224BAB
:10187C003A68D2B21A70204B1B6803F00F033A6817
:10188C009A4201D0012332E07B681B6803F0040309
:10189C00002B08D0194B9B6823F4E0527B68DB6863
:1018AC00164913438B607B681B6803F00803002BFD
:1018BC0009D0124B9B6823F460427B681B69DB00E8
:1018CC000E4913438B6000F021F802460B4B9B68CA
:1018DC001B0903F00F030A49CB5C22FA03F3094AF4
:1018EC001360094B1B681846FFF736F8002318469F
:1018FC001037BD4680BD00BF003C0240003802409E
:10190C00141B000800000020040000202DE9B04F3B
:10191C0090B000AF00237B630023FB6300233B6389
:10192C000023BB63594B9B6803F00C03082B0DD0B1
:10193C00082B00F2A180002B02D0042B03D09BE0DB
:10194C00534BBB639BE0534BBB6398E04F4B5B68C3
:10195C0003F03F037B634D4B5B6803F48003002B68
:10196C0028D04A4B5B689B0900223B627A623B6A37
:10197C00C3F308000021474B03FB01F2002300FBDB
:10198C0003F31344434AA0FB0212FA620A46BA62FA
:10199C00FA6A1344FB627B6B0022BB61FA61D7E9E4
:1019AC000623D7E90A01FEF71BFC02460B46134639
:1019BC00FB6353E0354B5B689B0900223B617A610A
:1019CC003B69C3F3080A4FF0000B52465B464FF0DD
:1019DC0000004FF00001590141EAD261500102466A
:1019EC000B46B2EB0A0863EB0B094FF000024FF009
:1019FC0000034FEA891343EA98634FEA8812B2EB6B
:101A0C00080463EB09054FF000024FF00003EB00F4
:101A1C0043EA5473E20014461D4614EB0A033B6080
:101A2C0045EB0B037B604FF000024FF00003D7E94E
:101A3C00004529468B02214643EA915321468A02EE
:101A4C00104619467B6B0022BB60FA60D7E9022373
:101A5C00FEF7C6FB02460B461346FB630B4B5B685B
:101A6C001B0C03F0030301335B003B63FA6B3B6B12
:101A7C00B2FBF3F3BB6302E0054BBB6300BFBB6B74
:101A8C0018464037BD46BDE8B08F00BF0038024055
:101A9C000024F40040787D0170B50D4D0D4C641B95
:101AAC00A4100026A64209D10B4D0C4C00F020F8D6
:101ABC00641BA4100026A64205D170BD55F8043B4A
:101ACC0098470136EEE755F8043B98470136F2E7A4
:101ADC002C1B00082C1B00082C1B0008301B0008BA
:101AEC0002440346934200D1704703F8011BF9E707
:101AFC00F8B500BFF8BC08BC9E467047F8B500BFEF
:081B0C00F8BC08BC9E467047BE
:101B14000000000000000000010203040607080999
:081B2400F8E6FF7F010000005C
:041B2C00D1010008DB
:041B3000AD010008FB
:0C1B34000024F40010000000010000007C
:040000050800086582
:00000001FF
